:020000040800F2
:100000000004002081020008E110000891030008AC
:100010009103000891030008910300089103000870
:100020009103000891030008910300089103000860
:100030009103000891030008910300085111000882
:100040009103000891030008910300089103000840
:100050009103000891030008910300089103000830
:1000600091030008810F0008B10F0008011000087B
:100070009103000891030008910300089103000810
:100080009103000891030008910300089103000800
:10009000910300089103000891030008D10A0008A9
:1000A000910300089103000891030008010E000865
:1000B00091030008910300089103000891030008D0
:1000C00030B583B000F0B4FB802400F079FA154815
:1000D000002100F03DFCA4009020C005211C8222DC
:1000E00000F01EFE90208021C005C900822200F091
:1000F00017FE0025A821490040220B4B00950B4814
:1001000000F0EEFAA8210A4B00950A484900402267
:1001100000F0E6FA084B1C83FA20400000F010FBC8
:10012000FAE7C046300C0020210200080008002039
:10013000F10100085009002000080048C046C046F0
:10014000002934D00123002210B488422CD301248A
:100150002407A14204D2814202D209011B01F8E71F
:10016000E400A14204D2814202D249005B00F8E7D8
:10017000884201D3401A1A434C08A04202D3001B04
:100180005C0822438C08A04202D3001B9C08224337
:10019000CC08A04202D3001BDC082243002803D075
:1001A0001B0901D00909E3E7101C10BC70470028A7
:1001B00001D00020C04307B4024802A140180290B9
:1001C00003BDC0461D0000000029F0D003B5FFF7B5
:1001D000B9FF0EBC4243891A1847C0460000000010
:1001E0007047C04600000000000000000000000052
:1001F000084B70B59B69084A8025AD00074C9A6191
:100200002E1C6683FA2000F09BFA2583FA2000F06A
:1002100097FAF6E7A00A0020F01500080008004849
:10022000094B70B59B69094A80256D00084C9A619D
:100230002E1CFA206683400000F082FAFA20258303
:10024000400000F07DFAF4E7A00A0020FC15000849
:1002500000080048C046C046C046C046C046C0462A
:100260007047C046C046C046C046C046C046C046AD
:10027000FEE7C046C046C046C046C046C046C0466F
:1002800072B63448051C80F30988022383F314886E
:10029000BFF36F8F304B314A934209D21C1DD11CE2
:1002A000091B890889002E4A611804C38B42FCD1BE
:1002B0002C4B834209D21A1DE91C891A890889002E
:1002C0005118274A04C38B42FCD100F0E9FE264AAC
:1002D000264B9A420BD2D043C018800801302449E3
:1002E00080000023CC58D45004338342FAD1214BF0
:1002F000214A934209D2181DD11C091A8908890084
:100300004118002204C38B42FCD1FFF7A9FF1B4D0B
:100310001B4B9D420AD2EE43F618B6080136002464
:10032000A300EB5801349847B442F9D1FFF7C8FE57
:10033000144D154B9D420AD2EE43F618B60801360D
:100340000024A300EB5801349847B442F9D1FFF7D9
:100350008FFFC0460008002000000020000400209D
:1003600055555555000400200008002000080020C5
:100370003817000800080020000D0020C000000809
:10038000C0000008C0000008C0000008C046C04609
:10039000FEE7C046C046C046C046C046C046C0464E
:1003A00010B5041C72B6037F032B19D014D9052B8A
:1003B0001AD00D2B18D001235B42636200232377F0
:1003C000A2680B4B1B6899689142FBD25A68236064
:1003D00062605C60146001E0002BECD162B610BD7D
:1003E000436A9A6801329A60201C00F071FFE2E7CC
:1003F000A00A0020C046C046C046C046C046C0460F
:10040000034B00225B601B609A605B611B6170475D
:10041000A00A0020C046C046C046C046C046C046EE
:10042000002303778268054B1B6899689142FBD2D1
:100430005A6803604260586010607047A00A00204C
:1004400038B5074D1423AC692077E377281C00F0FA
:1004500037FF01230377211CA86100F089FE38BD16
:10046000A00A0020C046C046C046C046C046C0469E
:1004700030B5051C87B04B1C12D00B4C01A8A369EA
:100480000A4A00F09DF9281CFFF7DAFF049B002BB5
:1004900002D001A800F0B4F9A369586A07B030BDD2
:1004A000FFF7CEFF004CF7E7A00A0020A1030008E9
:1004B00038B5124D4162A96984688A680023944264
:1004C0000BD803772B1C1B689A689442FBD95A6897
:1004D000036042605860106038BD0B772B1C1B68AE
:1004E0009C68A242FBD95A680B604A60596001239C
:1004F00011600377A86100F03BFEEDE7A00A002041
:1005000038B50D4D281CAC6900F0DAFE01230377E5
:100510001423E377A26800232377A8612B1C1B68B0
:1005200099689142FBD25A6823606260211C5C602A
:10053000146000F01DFE38BDA00A0020C046C04671
:1005400038B50C4D281CAC6900F0BAFE01230377C6
:10055000A26800232377A8612B1C1B68996891422D
:10056000FBD85A6823606260211C5C60146000F054
:10057000FFFD38BDA00A0020C046C046C046C046A8
:1005800008B5054B9B69DB7F002B02D0FFF7D8FF36
:1005900008BDFFF7B5FFFBE7A00A0020C046C04634
:1005A000024B034A9B699A61FEE7C046A00A0020FD
:1005B00010160008C046C046C046C046C046C046E9
:1005C00000B5154A154B83B0DA600A20002100F00F
:1005D0000FFE0B20802100F00BFEFFF711FF00F053
:1005E000DFF800F085FE00F053FE40210C4800F0DB
:1005F00057F80C4B98610123037762B6094B0A4AFE
:100600009B69E0219A61002300930122074B08486F
:1006100000F066F803B000BD0000FA0500ED00E050
:10062000BC0A0020A00A002020170008A10500082D
:10063000080B0020C046C046C046C046C046C04663
:1006400070B5134B9B69DA7F002A01D0013ADA7743
:100650001A6A01321A620F4AD3680133D3601368F1
:10066000934214D099680139996000290FD100266E
:10067000141C1968DD681160DE604A6062B6186992
:10068000A84772B62368221C99680029F1D070BD72
:10069000A00A0020E80B0020C046C046C046C04665
:1006A0000223037700234377C36383630362836179
:1006B0001422094BC277012282775A690361816053
:1006C00042615861031C2833016410618362043362
:1006D0000363C3627047C046A00A0020C046C046FC
:1006E00010B5041C72B624394118C1600B61029B1D
:1006F0004B61114B0B620223037700234377C363E3
:100700008363036283610D4B8260026401228277FE
:100710005A69036142615861031C14212833C1776F
:100720001061836204330363C3620021FFF7C0FEDC
:1007300062B6201C10BDC04691110008A00A00201E
:1007400008B5011C72B60620FFF792FE62B608BD1E
:1007500038B50E4B9D692C1CAA6A28346862A242E7
:1007600007D0201C00F0BCFDFFF75AFEAB6AA34285
:10077000F7D16B7F9A0704D12A696B691A612A69DC
:1007800053610E20FFF75CFE38BDC046A00A002072
:1007900008B572B6FFF7DCFF08BDC046C046C046CC
:1007A000044B012252429A6000225B601B60DA60B7
:1007B0007047C046E80B0020C046C046C046C04651
:1007C00010B50C4C03612368C2609A68914204D949
:1007D0001B68891A9A688A42FAD35A680360426091
:1007E000586010608160A34202D09A68511A9960E3
:1007F00010BDC046E80B0020C046C046C046C046FB
:100800000368074A10B5934203D0996884680A19AF
:100810009A604268136003685A600023C36010BD89
:10082000E80B0020C046C046C046C046C046C04691
:1008300008B500F0BDF8054800F012FA00F008F81D
:1008400000F05EF800F034FC08BDC04690160008C9
:1008500008B500F0EDF908BDC046C046C046C04628
:1008600008B501230370002343600C3000F070FDD5
:1008700008BDC046C046C046C046C046C046C04689
:1008800008B50C3000F0DCFD08BDC046C046C046CF
:1008900008B501230C305B4200F0D2FD08BDC04614
:1008A00008B5303000F064FE08BDC046C046C04602
:1008B00008B5012330305B4200F05AFE08BDC04647
:1008C00008B50C3000F09CFD08BDC046C046C046CF
:1008D00008B501210C30494200F092FD08BDC04628
:1008E00008B5303000F0F4FD08BDC046C046C04633
:1008F00008B501223030524200F0EAFD08BDC04682
:1009000008B500F0EDFA08BDC046C046C046C04676
:1009100030B5151C0D4A041C04C083B00B1C60606C
:100920000122201C211C22720C3054310094102210
:1009300000F02EFD201C211C303064310094102268
:100940002B1C00F0B5FD03B030BDC04620160008DA
:1009500010B5041C72B600F0DBFA0223237262B6F3
:1009600010BDC046C046C046C046C046C046C04690
:1009700038B54369041C0D1C002B07D0201C0C301B
:10098000291C00F015FD00280BDB38BD04300421C4
:1009900000F066FC201C0C30291C00F009FD00282A
:1009A000F3DA201D802100F05BFCEEE7C046C04674
:1009B0001D4B10B51A69012252421A6100221A61B8
:1009C000D9681A480143D96019481A49DA60486061
:1009D00007208A600860D869802149050143D961F0
:1009E000154980200C68400020430860196AC02027
:1009F0008000084080218900884203D0802149027C
:100A000019621A62084B8022196A1202114207D138
:100A1000186A8021890001431962196A0A431A621F
:100A200000F016FB10BDC04600100240FFFFBFFFE4
:100A30007FBB000010E000E000700040C046C046F0
:100A400020480123026802211343036003681D4A02
:100A50001942FBD01368F9210B4013600023536047
:100A60000C20536817491842FBD14A6A01231343EB
:100A70004B6202204B6A134A1842FBD0A1239B030E
:100A800053600023D3621363116880235B040B431C
:100A900080201360800413680A490342FBD00A4B8C
:100AA00011221A604A68022313434B600C204B68E2
:100AB000044A0340082BFAD1916901230B43936147
:100AC0007047C0460010024000200240C046C046A9
:100AD000F8B5544B5B6B9B697446524AFC20516BD2
:100AE0008001CB6103423BD1FE20184203D1201C80
:100AF00000F0FEFAF8BD4020184202D01578032D10
:100B000069D0DE0608D54D688020C00128434860C2
:100B100090680421014391609906E8D5116B0F2379
:100B2000086805689D4305604868097A1D1C8D406A
:100B3000D16A0560086805689D4305604868097AC0
:100B40008B4003609668002E30D172B6D0690028C1
:100B500004D00023D3614362FFF762FC62B6C6E7AC
:100B6000106B0F2105682E688E432E604568007A51
:100B70000E1C8640D06A2E6005682E688E432E605B
:100B80004568007A81402960D8051BD491689E058C
:100B900002D5022001439160580502D50820014387
:100BA0009160DD0413D520231943916072B6D0699A
:100BB0000028D3D00023D36102235B424362FFF7B6
:100BC0002FFCCBE79568012129439160DFE70029DD
:100BD00000D18CE7EAE70D688543D06A0D600068B4
:100BE0004568002D18D007680426167001263E437C
:100BF00006604E680C482D04304048604868054344
:100C00004D604D688020C000284348604D688020BA
:100C100080012843486074E74D688020C001284364
:100C200048606EE7F80B0020FFFF00FFC046C0469B
:100C300010B5064C201CFFF713FE0023E361044BA4
:100C40006363044BE3620C3B236310BDF80B00208D
:100C50000054004068160008C046C046C046C04662
:100C60002A4BBC225969D2030A435A614268902335
:100C7000DB055A6082689A60C268DA6002695A616C
:100C800042691A6282695A6202681A60026A204BDB
:100C90005A60426A9A60826ADA60C26A5A61026B7A
:100CA0001A62426B5A62C2691A60C26B194B5A606F
:100CB000026C9A60426CDA60826C5A61C26C1A6291
:100CC000026D5A62826B1A60826D134B5A60C26D5C
:100CD0009A60026EDA60426E5A61826E1A62C26E69
:100CE0005A62426D1A60426F0C4B5A60826F9A6072
:100CF000C26FDA60802282585A61842282581A6256
:100D0000882282585A62026F1A60704700100240AF
:100D10000004004800080048000C00480014004887
:100D2000F0B556464D465F464446F0B40327560795
:100D3000D506540617405205120F072383B0A40F9F
:100D4000924600229946F60FAD0F0194131C2BE03A
:100D5000026AA243444622430262446801229A4046
:100D600094433443446082685C0090460322A2406E
:100D7000D243444614402C4384609446C268141CF9
:100D800062461440019A1443C4600468221C6446FD
:100D900022403A43026049081CD0019A7600920032
:100DA000AD000192BF00013301240C42F3D04A464A
:100DB0001A40920054469440A0460F249440A44602
:100DC000072BC5D9426A141C624694434246144319
:100DD0004462C2E703B03CBC90469946A246AB468B
:100DE000F0BDC046C046C046C046C046C046C0462C
:100DF000024B802219680A431A607047003801408C
:100E0000F0B5474680B4F046324E756F2F68EC69F6
:100E10002C62220729D1E2051FD4A30615D4802312
:100E20003B4201D0234236D1620608D572B6736CBC
:100E3000B26C93423AD040239F432F6062B6404643
:100E400000F056F904BC9046F0BD72B6696A301CD9
:100E5000C9B2FFF78DFD62B6E1E772B68021301DA1
:100E6000890000F0FDF962B6D7E72107C90FC90173
:100E7000E30701D520231943A20701D540231943D5
:100E8000630702D580235B00194372B6301D00F062
:100E9000E7F962B6BFE772B6301C303000F040FBB5
:100EA00000280BDB80B2288562B6BDE7B36B002B50
:100EB000C1D0301D102100F0D3F9BCE7301D08214E
:100EC00000F0CEF9C0233A1C9A43402313432B6011
:100ED000EAE7C046300C0020C046C046C046C046C7
:100EE00010B5054C0021201C044AFFF711FD044BEE
:100EF0006367044BA36710BD300C0020F10D0008A0
:100F000000380140006CDC02C046C046C046C04606
:100F100070B5061C0C1E28D0337A012B17D0B06F89
:100F20002168FFF70DF9A268756F4023134380B263
:100F3000E268A8816B6001231343AB6062682E23D3
:100F4000FF3313432B6001235B422B6270BD084BC0
:100F50009E42E4D1074B80229969D2010A439A61EB
:100F60001B20C02100F01CF9D9E7034CD4E7C04690
:100F7000300C00200010024040160008C046C04659
:100F800010B57446074B0F211A681140064A596084
:100F90001368002B01D050689847201C00F0A8F877
:100FA00010BDC04600000240AC0C0020C046C04648
:100FB00010B574460E4B19680906090F07D00A01CF
:100FC0005A600C4A9368002B01D0D0689847084BB0
:100FD00019680905090F07D00A025A60054A136902
:100FE000002B01D050699847201C00F081F810BDFB
:100FF00000000240AC0C0020C046C046C046C046BF
:1010000010B574460E4B19680904090F07D00A037E
:101010005A600C4A9369002B01D0D0699847084B5D
:1010200019680903090F07D00A045A60054A136AB0
:10103000002B01D0506A9847201C00F059F810BDD1
:1010400000000240AC0C0020C046C046C046C0466E
:101050000B4A002313600B4A0B4913600B4A1360C1
:101060000B600B4993600B600A4913610B600A49DE
:1010700093610B601362094B012252425A60704720
:10108000D40C0020080002401C000240AC0C0020E0
:10109000300002404400024058000240000002407C
:1010A00008B5FFF7CDFC08BDC046C046C046C046E7
:1010B0007047C046C046C046C046C046C046C0464F
:1010C000FFF75EFA8022024B12065A60FEE7C04626
:1010D00000ED00E0C046C046C046C046C046C0461F
:1010E000EFF30983203383F3098862B67047C04663
:1010F0000F3019D072B6EFF309831A1C203A82F32D
:1011000009880F4880225204203B8169DA61CA7F36
:10111000002A0AD100688968806888425241D2B2A8
:10112000002A0AD1074A9A61704702688968926862
:10113000914292415242002AF4D0034A9A61F3E765
:10114000A00A0020C4100008C1100008C046C04614
:1011500010B5744672B6FFF773FA62B6201CFFF73B
:10116000C7FF10BDC046C046C046C046C046C046C8
:10117000F0B544464D4656465F46F0B46B46CB60EC
:10118000C3689D46F0BCA046A946B246BB46F0BD2A
:1011900062B6281CA047FFF7FBFA7047C046C0465E
:1011A00082080F4B920070B5D2180324C0239B0015
:1011B0000440D558E400FF26A640B543A1402C1CAE
:1011C0000C43D4501F23034001229A40131C4009B2
:1011D000034A80008018C02252008350036070BD13
:1011E00000E100E0C046C046C046C046C046C0461A
:1011F0008308084A10B59B0003249B1820409A6975
:10120000C000FF248440A2438140101C0843986121
:1012100010BDC04600ED00E0C046C046C046C04616
:1012200008B5836B1943037F8163082B0BD0092B0F
:1012300000D008BD436A19408B42FAD1FFF7F0F89D
:1012400000234362F5E7436A0B42F2D0FFF7E8F868
:1012500000234362EDE7C046C046C046C046C046D4
:1012600070B50468051C0E1CA04209D0E3686068D4
:101270003343E360A168FFF7D3FF2468A542F5D1AB
:1012800070BDC046C046C046C046C046C046C04607
:1012900008B50548054B036000238360C360103028
:1012A00000F056F808BDC046D80C002021130008F5
:1012B0004B6801604360486018607047C046C04694
:1012C000031C006802681A6053607047C046C0463D
:1012D000026843681A60026853607047C046C0469F
:1012E00003681A680260181C7047C046C046C046B2
:1012F00005490723054A073199431160044A9A4377
:10130000044B1A607047C046000D0020FC0C002002
:1013100000200020F80C0020C046C046C046C04651
:1013200072B60723C21D9A430649074B096818681D
:10133000091A8A4203D882181A6062B670470020E0
:10134000FBE7C046F80C0020FC0C0020C046C0465D
:1013500000234060006083607047C046C046C046BE
:1013600010B5031C0C1E0AD0064A191C9069436272
:10137000FFF79EFF0D20211CFFF77AF810BD01201A
:101380004042FBE7A00A0020C046C046C046C04617
:1013900010B5C361029B002441618161C16089185D
:1013A0004060006084600161036210BDC046C046B9
:1013B00008B58269436993421BD08268013282601A
:1013C0005A1C426119704369026993420AD2026849
:1013D00082420CD0FFF774FFFFF722F8002343622C
:1013E000002008BDC368026843618242F2D1002038
:1013F000F7E78268002AE1D004204042F1E7C046C6
:1014000038B5041C0D1C72B6C369002B07D0984771
:1014100005E0201C291CFFF7A3FF00280DDBA368B3
:10142000002BF6D0A269013BA360531CA361107886
:101430002269934201D3E368A36162B638BDC04616
:10144000F0B54E469146C26957464546E0B4041C85
:101450008A461E1C904672B600274346002B08D0D1
:10146000201CC04705E0201C311CFFF779FF002835
:1014700016D1A568002DF6D0A369013D5A1CA261C2
:10148000A5601B785246D355A3692269934201D3C4
:10149000E368A36162B60137B94502D072B6DCE7F2
:1014A00062B6381C1CBC90469946A246F0BDC046A8
:1014B000C361009B41618161C16089184060006027
:1014C0008260016103627047C046C046C046C046A4
:1014D00070B5041C0E1C151C72B605E0201C291CDE
:1014E000FFF73EFF002816DBA368002BF6D0013B78
:1014F000A36063695A1C62611E70626923699A4223
:1015000001D3E2686261E369002B01D0201C984797
:1015100062B6002070BD62B6FCE7C046C046C04659
:101520008369426910B59A4216D08268013282609E
:101530005A1C82611C7803699A420AD2026882426C
:1015400005D0FFF7BDFEFEF76BFF00234362201CB2
:1015500010BDC3688361F1E78268002AE6D00320EA
:101560004042F5E7C046C046C046C046C046C046F9
:10157000F0B557464E464546E0B4161CC269041CF9
:101580000F1C9A46914672B600239846A568002D16
:101590001DD06269013D531CA56063613B787D1CD1
:1015A0001370626923699A4201D3E26862614B4613
:1015B000002B01D0201CC84762B60122013E904496
:1015C000002E0BD072B62F1CA568002DE1D1201C77
:1015D0005146FFF7C5FE0028D8D062B640461CBC75
:1015E00090469946A246F0BDC046C046C046C04699
:1015F000626C696E6B65723200000000626C696E2D
:101600006B65723100000000000000000000000067
:1016100069646C650000000000000000000000002C
:10162000B108000891080008F1080008D108000876
:10163000E1080008C1080008A108000881080008A6
:1016400000960000000000000040000000000000C4
:101650000800024004000240000009001C00024093
:101660000400024004010A0030000240040002406D
:1016700008020A0044000240040002400C030B0070
:10168000580002400400024010040B00000000005B
:101690000000002800000000000000FC54555565C3
:1016A000FFFF00000000000000000000000000003C
:1016B00000000000F003000055555555FFFF0000E5
:1016C0000000000000000000000005000000000015
:1016D00000000FF055555005FFFC00000000000011
:1016E00000000000000000000000000000000000FA
:1016F00055555555FFFF0000000000000000000098
:10170000000000000000000000000000505555558A
:10171000FFFF0000000000000000000000000000CB
:101720006D61696E00168511040448080C101418C8
:08173000001C1D1E1F2000001B
:04000005080002816C
:00000001FF
